:100000000C9473060C949B060C949B060C94582439
:100010000C9458240C9458240C949B060C949B0626
:100020000C949B060C949B060C949B060C949B06CC
:100030000C949B060C949B060C949B060C949B06BC
:100040000C94112B0C949B060C94102E0C94422EA5
:100050000C949B060C949B060C949B060C949B069C
:100060000C94E4290C949B06F917FB17021804184A
:100070000A180E18131818182018251872190D1FB1
:10008000D61E2C1F681FE021B92176219821F11E70
:10009000D027E327F32706280E283A2842284A28A3
:1000A000522859285928592859285928592859284F
:1000B0005928592859285928592859285928592838
:1000C0005928592859285928592859285928592828
:1000D000D027DC27E327F32706280E282128292804
:1000E0003128496E76616C69642045494420426933
:1000F000740052656D656D62657220746F202857BB
:10010000297269746520746F20656570726F6D2146
:10011000004F6C64203A204E65770053706565642B
:100120006F20436F7272656374696F6E20546162F1
:100130006C6500456E74657220436C7573746572EE
:100140002073706565643A200056616C7565207493
:100150006F6F206C617267652100446F6E27742099
:10016000666F7267657420746F20285729726974EE
:1001700065210052656D656D62657220746F20287F
:100180005729726974652100456E7465722052505A
:100190004D20746F2065646974206F722028512986
:1001A00020746F20717569743A2000496E76616C15
:1001B00069642076616C756520656E74657265642E
:1001C0002E204D75737420626520626574776565B5
:1001D0006E20302D323535207073692E00496E76D1
:1001E000616C69642052504D20656E74657265645F
:1001F0002E00293A00456E7465722074687265732A
:10020000686F6C6420666F72202800456E7465729A
:10021000204F696C20466C6F6F722056616C75655B
:100220003A2000446F6E277420666F7267657420F1
:10023000746F202857297269746520746F204545B2
:1002400050524F4D2100456E7465722052504D2022
:10025000746F2065646974206F722028512920749E
:100260006F20717569743A20005D3A2000456E7404
:100270006572206E65772048692020546872657326
:10028000686F6C643A205B00446F6E277420666F61
:100290007267657420746F2028572972697465210C
:1002A000005265736574204D617A64610045786918
:1002B00074696E672073657475702E2E2E00446FFE
:1002C0006E652E0057726974696E6720746F2045E1
:1002D0004550524F4D2E2E2E005D3A200053636143
:1002E0006C655B00456E746572207468697320618B
:1002F0007320612070657263656E74616765202D7F
:100300002049452C2031333020697320333025209B
:100310006869676865722C20393820697320322536
:10032000206C6F7765722E004D616B65207375725E
:100330006520746F202857297269746520616E6486
:1003400020706F776572206379636C6520666F72C9
:10035000206368616E67657320746F2074616B65DC
:10036000206566666563742E00456E746572205460
:1003700068726573686F6C643A0043757272656E7B
:1003800074205468726573686F6C643A200043751A
:100390007272656E7420566F6C746167653A2000E6
:1003A000456E746572207468652076616C75652091
:1003B0006D756C7469706C69656420627920313088
:1003C0002C2069652031322E3676203D20313236A0
:1003D0000042656C6F772074686520766F6C74617D
:1003E0006765207468726573686F6C6420746865F3
:1003F0002062617474657279206C616D7020776918
:100400006C6C207475726E206F6E2E0056494E3AD9
:100410002000456E746572207265706F7274656439
:10042000204750532073706565643A20004E6F7406
:10043000653A20436F7272656374696F6E206661FE
:1004400063746F72206170706C69656420746F20D2
:100450006F6E6C792045434D2D736F7572636564C3
:100460002053706565646F005D3A2000456E7465C9
:1004700072206E6577204C6F7720546872657368C0
:100480006F6C643A205B002043757272656E742055
:100490004869202056616C75653A20004869202023
:1004A00044656661756C74205468726573686F6C1E
:1004B000643A20002043757272656E74204C6F7729
:1004C0002056616C75653A20004C6F772044656654
:1004D00061756C74205468726573686F6C643A203F
:1004E00000546865204C46582072756E7320776101
:1004F000726D6572207468616E2061204D58352ED2
:1005000020557375616C6C79207E3232302D323417
:1005100030662E00546865204E43277320636F6F4A
:100520006C616E74206761756765206973206E6FFA
:1005300074206C696E6561722E2049742068617345
:10054000206120486967682C204D656469756D20BD
:10055000616E64204C6F772073657474696E672ECA
:1005600000436F756E747320706572204D696C6501
:100570003A200043757272656E742056616C756521
:100580003A200031303030303000313235303000F8
:1005900044656661756C742056616C75653A20001F
:1005A0005375676765737465642056616C75652063
:1005B0006261736564206F6E2063757272656E741C
:1005C0002073706565646F6D6574657220636F720A
:1005D00072656374696F6E3A200061732074686598
:1005E0002073706565646F6D6574657220696E63F4
:1005F00072656173652E0046696E652054756E697B
:100600006E6720746865204F646F6D657465722035
:100610002D20696E2067656E6572616C2C20746890
:1006200069732073686F756C6420626520746865F7
:100630002073616D6520726174696F0052656D652C
:100640006D62657220746F20285729726974652065
:1006500076616C75657320746F20656570726F6D5F
:10066000004C6F6164696E672044656661756C74E7
:100670002056616C7565732E2E2E00456E74657262
:10068000204D50483A2000456E7465722052504DFE
:100690003A20002020373030303A200020203630F9
:1006A00030303A20002020353030303A20002020F1
:1006B000343030303A20002020333030303A2000BF
:1006C0002020323030303A20002020313030303A93
:1006D00020002020203530303A200020202020200B
:1006E000303A20005468726573686F6C6473202D13
:1006F0002D2D00284229204C53333A203E203670BD
:100700007369206174203130303072706D2C203E5E
:1007100020313870736920617420323030302C20E1
:100720003E203234707369206174203430303000E0
:10073000284129204C46583A203E203130707369B8
:10074000206F66206F696C207072657373757265B7
:100750002061742069646C6520616E64203E2033E2
:1007600030707369206174203230303072706D00E7
:1007700054686573652073706563732061726520CA
:100780006D696E696D756D2076616C756573206637
:10079000726F6D2074686520536572766963652099
:1007A0004D616E75616C2E002D204C6F6164204789
:1007B0004D2050726573657473202D004F696C2055
:1007C000666C6F6F723A2000507265737320284513
:1007D0002920746F20656469742063757272656E78
:1007E0007420666C6F6F7220646174610050726572
:1007F00073732028442920746F207072696E7420EE
:1008000035207365636F6E6473206F662072617745
:10081000204F696C20507265737375726520446156
:10082000746120746F2064657465726D696E6520F3
:100830007468652073656E736F7220666C6F617487
:1008400000546869732076616C7565206973207245
:1008500061772066726F6D207468652045434D2076
:1008600028616E64206E6F7420696E205053492990
:1008700020616E642073686F756C642062652076F9
:1008800065727920736D616C6C2E006973206163F1
:1008900063757261746520617320706F7373696230
:1008A0006C6520776520737562747261637420745F
:1008B00068697320666C6F61742076616C75652061
:1008C00066726F6D207468652070726573737572DF
:1008D000652063616C63756C6174696F6E7300573A
:1008E0006974682074686520656E67696E65206F3D
:1008F000666620746865206F696C2070726573731A
:100900007572652073656E736F722077696C6C20E9
:1009100022666C6F617422202D20746F206D616BD4
:1009200065207375726520746865206F696C20702E
:1009300072657373757265002D2D2D2D2D2D2D2D46
:100940002D2D2D2D2D2D2D2D2D2D2D2D2D2D2D2DD7
:100950002D2D2D2D2D00652858296974205365747F
:10096000757000285729726974652064617461206C
:10097000746F20454550524F4D00284C296F6164DB
:100980002064656661756C747300202D2D002852FB
:100990002920446973706C617920526567697374AA
:1009A0006572730028562920446973706C61792040
:1009B00056494E002853292042617474657279208B
:1009C0005468726573686F6C643A2000285029205F
:1009D00053706565646F20436F7272656374696FED
:1009E0006E3A2000284F29204F696C2050726573A1
:1009F00073757265205461626C6500284E2920432E
:100A00006F6F6C616E74205468726573686F6C648C
:100A10007300284D292054756E65204F646F6D65F5
:100A2000746572002855292054756E6520546163E1
:100A3000686F6D6574657200453339202F2045332A
:100A40003820323031302B004533382030362D30CD
:100A500039002854292045434D20547970653A20A7
:100A600000202D2D20536574757000202020284B08
:100A7000292042617474204C616D703A2020002856
:100A8000482920414253204C616D703A20202000BB
:100A90002028444353206D757374206265204F6E87
:100AA0002900202020284A2920544353204C616DDE
:100AB000703A20202000284729204272616B65206F
:100AC0004C616D703A2000202020284929204443A1
:100AD00053204C616D703A20202000284629204D7B
:100AE000494C204C616D703A202020004154200078
:100AF0004D616E75616C2000447269766520004E10
:100B000065757472616C005265766572736500502C
:100B100061726B0028452920476561722028417564
:100B2000746F6D61746963204F6E6C79293A20008F
:100B30004E6F0059657300284429204F696C20507E
:100B4000726573737572653A202000486920202011
:100B50002852656163747320536C6F776C79290038
:100B60004D656420202852656163747320536C6F57
:100B7000776C7929004C6F77202028526561637467
:100B80007320536C6F776C79290028432920436FB9
:100B90006F6C616E743A20002842292053657420DE
:100BA0004D5048202D2000284129205365742052A3
:100BB000504D202D20002048573A20004E4320431E
:100BC0006C757374657220436F6D6D616E646572D0
:100BD000202D2046573A20004D617A646120434E13
:100BE00046333A203078004D617A646120434E46A6
:100BF000323A203078004D617A646120434E4631AC
:100C00003A20307800474D20434E46333A20307822
:100C100000474D20434E46323A20307800474D2061
:100C2000434E46313A2030780054696D656F7574D3
:100C300021204973207468652045435520747572DE
:100C40006E6564206F6E20616E6420636F6E6E65EA
:100C5000637465643F00466C617368004F666600AC
:100C60004F6E200006060C1215181818180A0A0FE5
:100C70001E1E1E1E1E1E0A0A0F1E1E1E1E1E1EE801
:100C800003DCA07E0000000800020100000304074E
:100C90000000000000000000010204081020408055
:100CA00001020408102001020408102004040404B6
:100CB0000404040402020202020203030303030306
:100CC000000000002300260029000000000025008D
:100CD00028002B0000000000240027002A00341800
:100CE000B729722E531811241FBECFEFD8E0DEBFF4
:100CF000CDBF11E0A0E0B1E0E8E0F1E702C005906F
:100D00000D92AC3EB107D9F724E0ACEEB1E001C0E2
:100D10001D92A83FB207E1F71CE0C4EEDCE004C07E
:100D20002297FE010E948935CE3DD107C9F70E9466
:100D3000DF320C9477380C9400008EBD00000DB4A7
:100D400007FEFDCF8EB508950F931F93CF93DF93CA
:100D50001F92CDB7DEB78C01862FF801608361E06A
:100D600049830E94332C4981F801418362E0842F3A
:100D70000F90DF91CF911F910F910C94332CFC01B8
:100D800081810E94A22C21E0892B09F020E0822F92
:100D90000895EF92FF921F93CF93DF931F92CDB7E9
:100DA000DEB77C01162F60E0FC01808149830E9440
:100DB0006C2C82E00E949D06812F0E949D06498135
:100DC000842F0E949D0661E0F70180810F90DF91E2
:100DD000CF911F91FF90EF900C946C2CCF93DF93E9
:100DE000EC018CB58C7F8CBD8DB581608DBD8CB5D3
:100DF000837F8CBD8CB58F7D8CBD0E94EA2860E01E
:100E000088810E946C2C80EC0E949D0661E08881A4
:100E10000E946C2C61E070E080E090E00E948A2BE0
:100E200047E86FE0CE010E94C90640E06AE2CE01C9
:100E30000E94C90645EB69E2CE010E94C90641E065
:100E400068E2CE010E94C90647E06FE0CE010E9431
:100E5000C90661E070E080E090E00E948A2B44E6E1
:100E600060E6CE010E94C90648E660E7CE010E9416
:100E7000C90643E06BE2CE010E94C9064FE06CE078
:100E8000CE01DF91CF910C94C9066F927F928F9221
:100E90009F92AF92BF92CF92DF92EF92FF921F93F9
:100EA000CF93DF931F92CDB7DEB73C016A017B0180
:100EB00047E86FE029830E94C90644E060E6C30169
:100EC0000E94C90648E060E7C3010E94C9064601C6
:100ED000570183E0B694A794979487948A95D1F7A5
:100EE000C294CC0C90EEC9222981213011F010E27D
:100EF00001C014E260E0F30180810E946C2C82E06A
:100F00000E949D06812F0E949D06882D0E949D06AD
:100F10008C2D0E949D0680E00E949D0680E00E942C
:100F20009D0661E0F30180810E946C2C47E06FE038
:100F3000C3010F90DF91CF911F91FF90EF90DF9051
:100F4000CF90BF90AF909F908F907F906F900C94B8
:100F5000C9066F927F928F929F92AF92BF92CF926B
:100F6000DF92EF92FF921F93CF93DF931F92CDB743
:100F7000DEB73C016A017B0147E86FE029830E94EC
:100F8000C90644E060E6C3010E94C90648E060E784
:100F9000C3010E94C9064601570123E0B694A794F5
:100FA000979487942A95D1F7C294CC0C30EEC32243
:100FB00029812130F1F12230F1F1233031F0243058
:100FC00031F0253031F010E005C010E103C014E12C
:100FD00001C018E160E0F30180810E946C2C82E086
:100FE0000E949D06812F0E949D06882D0E949D06CD
:100FF0008C2D0E949D0680E00E949D0680E00E944C
:101000009D0661E0F30180810E946C2C47E06FE057
:10101000C3010F90DF91CF911F91FF90EF90DF9070
:10102000CF90BF90AF909F908F907F906F900C94D7
:10103000C90614E0CFCF18E0CDCF1F93CF93DF9335
:10104000EC01162F60E088810E946C2C83E00E94E6
:101050009D06812F0E949D0680E00E949D06182F0C
:1010600061E088810E946C2C812FDF91CF911F91CC
:1010700008950F931F93CF93DF93EC01162F0E94D7
:101080001D08082F887739F41035B9F11034B9F1FB
:10109000103391F536C0802F807771F105FF15C0B0
:1010A00060E088810E946C2C103511F484E807C040
:1010B000103411F482E803C0103319F481E80E945F
:1010C0009D0661E088810E946C2C802F807104FF56
:1010D00019C0103511F484E807C0103411F482E807
:1010E00003C0103319F481E80E949D0661E08881F5
:1010F0000E946C2C80E006C005C084E403C082E43A
:1011000001C080E4DF91CF911F910F910895CF929C
:10111000DF92EF92FF921F93CF93DF93EC010E9437
:101120005B2B6B017C0184E6C80ED11CE11CF11C19
:1011300010E3612FCE010E94390881110CC00E947A
:101140005B2BC616D706E806F90620F0105F1135AE
:1011500080F3EECF84E4DF91CF911F91FF90EF9069
:10116000DF90CF9008953F924F925F926F927F925F
:101170008F929F92AF92BF92CF92DF92EF92FF92A7
:101180000F931F93CF93DF93CDB7DEB760970FB662
:10119000F894DEBF0FBECDBF3C0189829A82AB823C
:1011A000BC828C2DCD82DE82EF82F88609871A8779
:1011B0002B873C874D875E876F87788B49815A8163
:1011C0006B817C81823038F062EE70E087E594E0DC
:1011D0000E94F32E39C0C11015C0DB01CA0113E013
:1011E000B695A795979587951A95D1F7382E542ED1
:1011F0005294550C00EE50224F2C30E8D39E4018EC
:10120000112422C0813001F5DB01CA01E6E1B69567
:10121000A79597958795EA95D1F7382ECB01AA2700
:10122000BB27282F2C71E82FE3705E2EF8E05F0EAD
:1012300038E0239F500C1124052FE42E4F2C80E81A
:10124000D89E4018112402C0E12C00E0C3010E9486
:101250008708182F60E0F30180810E946C2C812F99
:101260000E949D06832D0E949D06852D0E949D064D
:10127000802F0E949D068E2D0E949D06842D0E9427
:101280009D0600E0E9E0F0E0EC0FFD1FE00FF11D2E
:1012900080810E949D060F5FF016A0F761E0F301C8
:1012A00080810E946C2C60E0F30180810E946C2C94
:1012B000143411F484E807C0123411F482E803C036
:1012C000103419F481E80E949D0661E0F3018081E9
:1012D00060960FB6F894DEBF0FBECDBFDF91CF9101
:1012E0001F910F91FF90EF90DF90CF90BF90AF9044
:1012F0009F908F907F906F905F904F903F900C9455
:101300006C2CFF920F931F93CF93DF93EC018B0113
:1013100060E0F80180810E946C2C80EB0E949D06A9
:1013200080E00E949D06F82E61E0F80180810E9415
:101330006C2C60E0F80180810E946C2CF7FE02C0EA
:1013400084E903C0F6FE03C080E90E949D0680E0A8
:101350000E949D06888380E00E949D06898380E02C
:101360000E949D068A8380E00E949D068B8380E018
:101370000E949D068C8380E00E949D068D8380E004
:101380000E949D068E8380E00E949D068F8380E0F0
:101390000E949D06888780E00E949D06898780E0E4
:1013A0000E949D068A8780E00E949D068B8780E0D0
:1013B0000E949D068C8761E0F80180810E946C2C60
:1013C000CE01DF91CF911F910F91FF9008958F92E1
:1013D0009F92AF92BF92CF92DF92EF92FF920F93C4
:1013E0001F93CF93DF93CDB7DEB72D970FB6F89449
:1013F000DEBF0FBECDBFFC018982892D9A82AB82F0
:10140000BC82CD82DE82EF82F88609871A872B871D
:101410003C874D87292D229526952770912CA12C4C
:10142000B12C13E0880C991CAA1CBB1C1A95D1F78F
:10143000820E911CA11CB11C80829182A282B38277
:1014400084FB992790F9968383FB992790F99483DD
:10145000913011F572E0880C991CAA1CBB1C7A957E
:10146000D1F78370880E911CA11CB11CBA2CA92C39
:10147000982C88248B81880E911CA11CB11CBA2C3D
:10148000A92C982C88248C81880E911CA11CB11C3D
:1014900080829182A282B3828D818F708783158230
:1014A000CF0108969F01205F3F4FDC011D92A217DC
:1014B000B307E1F7BE016A5F7F4F9E01225F3F4F96
:1014C000DB014D91BD01DC014D93CD016217730726
:1014D000B9F7CF012D960FB6F894DEBF0FBECDBF82
:1014E000DF91CF911F910F91FF90EF90DF90CF9000
:1014F000BF90AF909F908F9008950F931F93CF93BD
:10150000DF931F92CDB7DEB78C0169830E942A3822
:101510006981681741F0C8010F90DF91CF911F9149
:101520000F910C9432380F90DF91CF911F910F9152
:1015300008950C942A388F929F92AF92BF92CF92C7
:10154000DF92EF92FF920F931F93CF93DF93CDB76C
:10155000DEB76D970FB6F894DEBF0FBECDBF6AE25F
:1015600073E0CE0141960E94810989889A88AB88F0
:10157000BC88CD88DE88EF88F88C098D1A8D2B8D7C
:101580003C8D4D8D6AE273E0CE0101960E94E70921
:1015900049815A816B817C818A852B85403194E019
:1015A00059076105710591F4622F0E949B31969550
:1015B000879590938902809388026D858C850E941F
:1015C0009B3190938B0280938A0220C0403191E03E
:1015D00059076105710551F490E0982F8827820F13
:1015E000911D909387028093860210C0403195E050
:1015F00059076105710519F48093920207C04830BC
:1016000053406105710511F4209393026D960FB656
:10161000F894DEBF0FBECDBFDF91CF911F910F9128
:10162000FF90EF90DF90CF90BF90AF909F908F9002
:1016300008958F929F92AF92BF92CF92DF92EF92D6
:10164000FF920F931F93CF93DF93CDB7DEB76D97C4
:101650000FB6F894DEBF0FBECDBF6AE273E0CE01D5
:1016600041960E94810989889A88AB88BC88CD8878
:10167000DE88EF88F88C098D1A8D2B8D3C8D4D8D71
:101680006AE273E0CE0101960E94E70949815A811E
:101690006B817C818A851B850C85453F91E05907CC
:1016A0006105710559F4043031F48E858A3019F4DE
:1016B000809395023AC00093950237C0493E93E06B
:1016C00059076105710589F4682F89850E949B314E
:1016D0009093890280938802602F812F0E949B3112
:1016E00090938B0280938A0220C0493C510561058A
:1016F000710559F4682F70E0762F6627610F711D10
:10170000709387026093860210C0413C84E05807C2
:101710006105710519F41093920207C0413D5440D0
:101720006105710511F4109393026D960FB6F8944C
:10173000DEBF0FBECDBFDF91CF911F910F91FF9004
:10174000EF90DF90CF90BF90AF909F908F900895D3
:1017500080913503811102C00E949B0A809135035C
:10176000813011F40C94190B08958F929F92AF92CF
:10177000BF92CF92DF92EF92FF920F931F93CF937E
:10178000DF93CDB7DEB760970FB6F894DEBF0FBE1C
:10179000CDBF80E4882E89831A821B821C82912C03
:1017A000A12CB12CC12CDE80EF8068E0F62E01E880
:1017B0001FE720E030E040E050E060E070E08EE2C3
:1017C00093E00E94B30860960FB6F894DEBF0FBE98
:1017D000CDBFDF91CF911F910F91FF90EF90DF90E0
:1017E000CF90BF90AF909F908F9008958F929F92CF
:1017F000AF92BF92CF92DF92EF92FF920F931F931F
:10180000CF93DF93CDB7DEB760970FB6F894DEBF06
:101810000FBECDBF81E092E0A0E0B0E089839A8363
:10182000AB83BC831D8288E08887A0917802A436B0
:1018300081F02091020230910302B0E00E948D35C8
:1018400024E630E040E050E00E946835122F032F7C
:1018500004C010910202009103026091690270912C
:101860006A0280E090E00E94F1332AED3EEF4DECF9
:101870005FE30E94A73420E030E44CE156E40E948C
:10188000F0320E94C533562F472F89809A80AB8053
:10189000BC80CD80DE80EF80F88420E030E060E026
:1018A00070E08EE293E00E94B30860960FB6F89461
:1018B000DEBF0FBECDBFDF91CF911F910F91FF9083
:1018C000EF90DF90CF90BF90AF909F908F90089552
:1018D0008F929F92AF92BF92CF92DF92EF92FF9240
:1018E0000F931F93CF93DF93CDB7DEB760970FB6FB
:1018F000F894DEBF0FBECDBF82E192E0A0E0B0E081
:1019000089839A83AB83BC831D8288E0888780911A
:10191000FB01811102C000E001C008E01A861B86AD
:101920001C868091FC01813021F0823021F040E062
:1019300003C040E101C040E28091FD018111405CA3
:101940008091FE01813011F44C5F03C0823009F4B4
:10195000485F89809A80AB80BC80CD80DE80EF803C
:10196000F8841A852B853C8550E060E070E08EE2BB
:1019700093E00E94B30860960FB6F894DEBF0FBEE6
:10198000CDBFDF91CF911F910F91FF90EF90DF902E
:10199000CF90BF90AF909F908F9008958F929F921D
:1019A000AF92BF92CF92DF92EF92FF920F931F936D
:1019B000CF93DF93CDB7DEB760970FB6F894DEBF55
:1019C0000FBECDBF81E392E0A0E0B0E089839A83AF
:1019D000AB83BC831D8288E0888719868091720260
:1019E000853008F489871A86853021F484E0898758
:1019F00080E805C0863021F484E0898780E48A8706
:101A00007091730289809A80AB80BC80CD80DE802B
:101A1000EF80F88409851A8520E030E040E050E04E
:101A200060E08EE293E00E94B30860960FB6F894EF
:101A3000DEBF0FBECDBFDF91CF911F910F91FF9001
:101A4000EF90DF90CF90BF90AF909F908F900895D0
:101A50008F929F92AF92BF92CF92DF92EF92FF92BE
:101A60000F931F93CF93DF93CDB7DEB760970FB679
:101A7000F894DEBF0FBECDBF80E294E0A0E0B0E0FE
:101A800089839A83AB83BC831D8288E0888719860B
:101A900080917102823011F480EC07C0813011F422
:101AA00080E803C0811102C080E4898700918A0226
:101AB00010918B0280916D0290916E0208171907A8
:101AC00020F480916C0280936F02B80180E090E076
:101AD0000E94F13320917402309175024091760298
:101AE000509177020E94A7340E94C033CB0160E07E
:101AF00071E00E94323510936E0200936D02909156
:101B00006F02980F90936C029A871B861C861D8625
:101B10001E868091FF01813011F480E403C0823081
:101B200011F480E88E871F8680910002882311F0CF
:101B300080E48F8789809A80AB80BC80CD80DE80F6
:101B4000EF80F88409851A852B853C854D855E8557
:101B50006F8570E08EE293E00E94B30860960FB646
:101B6000F894DEBF0FBECDBFDF91CF911F910F91D3
:101B7000FF90EF90DF90CF90BF90AF909F908F90AD
:101B800008951F93CF93DF93C82FD0E0CE010E941A
:101B9000990A182FCE0101960E94990A212F30E050
:101BA000322F2227A901480F511DCA01DF91CF9181
:101BB0001F910895CF92DF92EF92FF920F931F93A0
:101BC000CF93082F10E0C8010E94990AF82EC8018F
:101BD00001960E94990AC82FC80102960E94990A8C
:101BE000C82EC80103960E94990A082F8C2F90E0F6
:101BF000A0E0B0E06627782F892F9A2F6F0D711D16
:101C0000811D911DD12CE12CF12C7601DD24CC24F9
:101C10006C0D7D1D8E1D9F1D10E020E030E0302FEB
:101C2000222711270027600F711F821F931FCF915A
:101C30001F910F91FF90EF90DF90CF9008958BE16F
:101C400090E00E94990A809378028EE190E00E94D1
:101C5000990A809334038FE190E00E94990A80935F
:101C6000360380E290E00E94990A8093350388E26F
:101C70000E94C10D90937A02809379028AE290E0EB
:101C80000E94990A80937C028BE290E00E94990A5C
:101C900080937B028CE290E00E94990A8093390342
:101CA0008DE290E00E94990A80937D028EE290E09E
:101CB0000E94990A80937E028FE290E00E94990A26
:101CC00080937F0280E390E00E94990A80938002D3
:101CD00081E390E00E94990A8093810282E390E080
:101CE0000E94990A8093820283E390E00E94990AFD
:101CF0008093830284E390E00E94990A8093840297
:101D000085E390E00E94990A8093850286E390E043
:101D10000E94990A8093940289E390E00E94990AB4
:101D2000809338038AE30E94DA0D60938E027093E9
:101D30008F02809390029093910208951F93CF9306
:101D4000DF93182FC62FD0E0692FCE010E947D0AA5
:101D5000612FCE010196DF91CF911F910C947D0AE6
:101D6000CF92DF92EF92FF92CF93DF936B017C01D2
:101D7000C42FD0E0CE010E947D0A99278F2D7E2DA1
:101D80006D2DCE0101960E947D0AB7018827992703
:101D9000CE0102960E947D0A6F2D7727882799270A
:101DA000CE010396DF91CF91FF90EF90DF90CF901F
:101DB0000C947D0A609178028BE190E00E947D0A8C
:101DC000609134038EE190E00E947D0A60913603B9
:101DD0008FE190E00E947D0A6091350380E290E0FF
:101DE0000E947D0A68E28091790290917A020E94B5
:101DF0009E0E60917C028AE290E00E947D0A6091D2
:101E00007B028BE290E00E947D0A609139038CE2B4
:101E100090E00E947D0A60917D028DE290E00E9438
:101E20007D0A60917E028EE290E00E947D0A6091C0
:101E30007F028FE290E00E947D0A6091800280E341
:101E400090E00E947D0A6091810281E390E00E940F
:101E50007D0A6091820282E390E00E947D0A609197
:101E6000830283E390E00E947D0A6091840284E310
:101E700090E00E947D0A6091850285E390E00E94D7
:101E80007D0A6091940286E390E00E947D0A609151
:101E9000380389E390E00E947D0A60918E02709180
:101EA0008F0280919002909191024AE30C94B00EBF
:101EB000EFE7FCE08591949190937A028093790208
:101EC000E2E8FCE0E491E0937C02E1E8FCE0E491EC
:101ED000E0937B021092390384E680937802E6E770
:101EE000FCE0E491E0937D02E7E7FCE0E491E0931D
:101EF0007E02E8E7FCE0E491E0937F02E9E7FCE0A2
:101F0000E491E0938002EAE7FCE0E491E09381024F
:101F1000EBE7FCE0E491E0938202ECE7FCE0E49183
:101F2000E0938302EDE7FCE0E491E0938402EEE7C6
:101F3000FCE0E491E093850210929402E3E8FCE077
:101F4000E491E093380380913503811105C080EA64
:101F500096E8A1E0B0E006C0813061F484ED90E342
:101F6000A0E0B0E080938E0290938F02A093900245
:101F7000B09391020895813019F460E67CE009C0C5
:101F8000811103C06CE57CE004C0823031F466E569
:101F90007CE087E594E00C94F32E08954F925F92D5
:101FA0006F927F928F929F92AF92BF92CF92DF9269
:101FB000EF92FF920F931F93CF93DF93CDB7DEB7CE
:101FC0006D970FB6F894DEBF0FBECDBF0E945B2B9E
:101FD00060934603709347038093480390934903AB
:101FE0002B013C0128E8420E23E1521E611C711CAA
:101FF0008091460390914703A0914803B091490313
:1020000084159505A605B705A0F50E945B2B609386
:1020100046037093470380934803909349036AE211
:1020200073E0CE0141960E94810989889A88AB8825
:10203000BC88CD88DE88EF88F88C098D1A8D2B8DB1
:102040003C8D4D8D6AE273E0CE0101960E94E70956
:1020500089819A81AB81BC81813D9440A105B10504
:1020600039F64AE050E06B8587E594E00E94103035
:10207000BFCF6D960FB6F894DEBF0FBECDBFDF9118
:10208000CF911F910F91FF90EF90DF90CF90BF9075
:10209000AF909F908F907F906F905F904F9008953A
:1020A0002F923F924F925F926F927F928F929F9268
:1020B000AF92BF92CF92DF92EF92FF920F931F9356
:1020C000CF93DF93CDB7DEB7AA970FB6F894DEBFF4
:1020D0000FBECDBF8AE293E00E94EE068FED882E00
:1020E000898387E08A831B821C8289E08A8782E059
:1020F0008B871C861D861E861F86188A47E0942EB5
:10210000A12CB12CC12CDE80EF8058E0F52E02E02E
:1021100019E022E030E040E050E060E070E08AE268
:1021200093E00E94B3080E945B2B60934603709378
:10213000470380934803909349032B013C0128EB0C
:10214000420E2BE0521E611C711C312C60EE262EBB
:102150000E945B2B641575058605970508F061C024
:102160008AE293E00E9487088AE293E00E94BF0619
:10217000882371F36AE273E0CE014E960E948109D2
:102180008E8C9F8CA8A0B9A0CAA0DBA0ECA0FDA05B
:102190000EA11FA128A539A54AA56AE273E0CE01C8
:1021A00001960E94E7096E850F85188989819A81B9
:1021B000AB81BC81883E9740A105B10549F687E512
:1021C00094E00E94182F602F87E594E00E94182F5A
:1021D000612F87E594E00E94182F822C298287E0E6
:1021E0008A831B821C821A861B861C861D861E867D
:1021F0001F86188A27E0922EA12CB12CC12CDE80DC
:10220000EF8038E0F32E00E310E020E030E040E023
:1022100050E060E070E08AE293E00E94B30833246B
:1022200033943A9481E0831538F00E945B2B641557
:1022300075058605970550F10E945B2B64157505A1
:102240008605970508F47AC069E27CE087E594E0AA
:102250000E94232F87E594E0AA960FB6F894DEBF7C
:102260000FBECDBFDF91CF911F910F91FF90EF90E7
:10227000DF90CF90BF90AF909F908F907F906F90A6
:102280005F904F903F902F900C941F2F8AE293E025
:102290000E9487088AE293E00E94BF06882329F201
:1022A0006AE273E0CE0141960E94810989889A888A
:1022B000AB88BC88CD88DE88EF88F88C098D1A8DB4
:1022C0002B8D3C8D4D8D6AE273E0CE0101960E940C
:1022D000E7096A85DB84EC84FD840E851F852888E8
:1022E00089819A81AB81BC81883E9740A105B10567
:1022F00009F098CF87E594E00E94182F6D2D87E5AF
:1023000094E00E94182F6E2D87E594E00E94182F0C
:102310006F2D87E594E00E94182F602F87E594E0E9
:102320000E94182F612F87E594E00E94182F622DDC
:1023300087E594E00E94182F339474CFAA960FB6C5
:10234000F894DEBF0FBECDBFDF91CF911F910F91EB
:10235000FF90EF90DF90CF90BF90AF909F908F90C5
:102360007F906F905F904F903F902F90089547E837
:102370006FE08AE293E00E94C9066DE17CE087E5A8
:1023800094E00E94F32E6AE28AE293E00E941D0824
:1023900040E150E0682F87E594E00E94103061E151
:1023A0007CE087E594E00E94F32E69E28AE293E004
:1023B0000E941D0840E150E0682F87E594E00E94EC
:1023C000103065E07CE087E594E00E94F32E68E23F
:1023D0008AE293E00E941D0840E150E0682F87E503
:1023E00094E00E94103047E06FE08AE293E00E94A0
:1023F000C90647E86FE08EE293E00E94C90666EFE7
:102400007BE087E594E00E94F32E6AE28EE293E09F
:102410000E941D0840E150E0682F87E594E00E948B
:10242000103067EE7BE087E594E00E94F32E69E2CE
:102430008EE293E00E941D0840E150E0682F87E59E
:1024400094E00E94103068ED7BE087E594E00E9404
:10245000F32E68E28EE293E00E941D0840E150E016
:10246000682F87E594E00E94103047E06FE08EE22D
:1024700093E00C94C90687E594E00E941F2F6CEB53
:102480007BE087E594E00E94F32E22E030E04EEA04
:1024900057E461E87FE387E594E00E94403166EB12
:1024A0007BE087E594E00E94F32E22E030E040E0FC
:1024B00050E060E87FE387E594E00E94423167EAFC
:1024C0007BE087E594E00E94F32E60910202709118
:1024D000030276956795769567954AE050E087E523
:1024E00094E00E942D3068E97BE087E594E00E944B
:1024F000F32E8091690290916A0264E670E00E9476
:102500001E354AE050E087E594E00E942D306AE8ED
:102510007BE087E594E00E94F32E809171028111A7
:1025200006C065E77BE087E594E00E94232F809159
:102530007102813031F460E67BE087E594E00E942F
:10254000232F80917102823031F46BE47BE087E5C8
:1025500094E00E94232F67E37BE087E594E00E94EC
:10256000F32E80917002882331F063E37BE087E5EE
:1025700094E00E94232F80917002811106C060E3D5
:102580007BE087E594E00E94232F64E17BE087E510
:1025900094E00E94F32E80917202813031F46FE05A
:1025A0007BE087E594E00E94F32E809172028230F6
:1025B00031F467E07BE087E594E00E94F32E8091A0
:1025C0007202833031F46FEF7AE087E594E00E9485
:1025D000F32E80917202843071F468EF7AE087E51F
:1025E00094E00E94F32E4AE050E06091730287E588
:1025F00094E00E94093080917202853071F460EF9E
:102600007AE087E594E00E94F32E4AE050E0609182
:10261000730287E594E00E9409308091720286304F
:1026200071F46CEE7AE087E594E00E94F32E4AE0C4
:1026300050E06091730287E594E00E94093087E5DD
:1026400094E00E941F2F6BED7AE087E594E00E94F2
:10265000F32E8091FF010E94BB0F67EC7AE087E5C3
:1026600094E00E94F32E8091FB010E94BB0F87E54E
:1026700094E00E941F2F66EB7AE087E594E00E94C9
:10268000F32E8091FD010E94BB0F62EA7AE087E59C
:1026900094E00E94F32E8091FE010E94BB0F60E93E
:1026A0007AE087E594E00E94F32E87E594E00E94AB
:1026B0001F2F6FE77AE087E594E00E94F32E809168
:1026C000FC010E94BB0F6BE67AE087E594E00E9474
:1026D000F32E809100020E94BB0F87E594E00E94D8
:1026E0001F2F61E67AE087E594E00E94232F62E5E0
:1026F0007AE087E594E00E94F32E80913503811102
:1027000006C068E47AE087E594E00E94232F809178
:102710003503813031F468E37AE087E594E00E9484
:10272000232F64E27AE087E594E00E94232F62E1A0
:102730007AE087E594E00E94232F6BEF79E087E54C
:1027400094E00E94232F64EE79E087E594E00E94F4
:10275000232F6CEC79E087E594E00E94F32E6091E2
:10276000790270917A0280E090E00E94F13320E0DB
:1027700030E04AE754E40E945833AB01BC0123E047
:1027800030E087E594E00E94423164EB79E087E530
:1027900094E00E94F32E6091380370E080E090E0B6
:1027A0000E94F13320E030E040E251E40E945833CF
:1027B000AB01BC0121E030E087E594E00E944231AA
:1027C00064EA79E087E594E00E94232F6EE879E0DF
:1027D00087E594E00E94232F6AE879E087E594E09A
:1027E0000E94232F6AE779E087E594E00E94232F77
:1027F00063E679E087E594E00E94232F66E579E0BF
:1028000087E594E00C94F32E87E594E00E941F2F57
:1028100087E594E00E941F2F68E379E087E594E064
:102820000E94232F6FED78E087E594E00E94232F2C
:102830006BE878E087E594E00E94232F87E594E039
:102840000E941F2F61E478E087E594E00E94232F27
:102850006DEE77E087E594E00E94232F68EC77E047
:1028600087E594E00E94232F87E594E00E941F2FC4
:102870006CEB77E087E594E00E94F32E4AE050E0AD
:102880006091940287E594E00E94103087E594E01F
:102890000E941F2F68EA77E087E594E00E94232FCB
:1028A00060E777E087E594E00E94232F60E377E01C
:1028B00087E594E00E94232F63EF76E087E594E0BC
:1028C0000E94232F64EE76E087E594E00E94232F98
:1028D0006BED76E087E594E00E94F32E4AE050E04D
:1028E00060917D0287E594E00E94103062ED76E011
:1028F00087E594E00E94F32E4AE050E060917E026A
:1029000087E594E00E94103069EC76E087E594E07A
:102910000E94F32E4AE050E060917F0287E594E048
:102920000E94103060EC76E087E594E00E94F32E80
:102930004AE050E06091800287E594E00E94103008
:1029400067EB76E087E594E00E94F32E4AE050E0E2
:102950006091810287E594E00E9410306EEA76E093
:1029600087E594E00E94F32E4AE050E060918202F5
:1029700087E594E00E94103065EA76E087E594E010
:102980000E94F32E4AE050E06091830287E594E0D4
:102990000E9410306CE976E087E594E00E94F32E07
:1029A0004AE050E06091840287E594E00E94103094
:1029B00063E976E087E594E00E94F32E4AE050E078
:1029C0006091850287E594E00C9410300F931F937B
:1029D0000E945B2B609346037093470380934803E8
:1029E000909349030091EC011091ED012091EE01CB
:1029F0003091EF01061717072807390708F09FC025
:102A00002091F001211112C0DC01CB0188539F4FAE
:102A1000AF4FBF4F8093EC019093ED01A093EE0177
:102A2000B093EF0161E082E10E946C2C8091F00193
:102A30008130E9F48091460390914703A0914803C7
:102A4000B0914903C296A11DB11D8093EC019093F2
:102A5000ED01A093EE01B093EF0182E10E94A22C60
:102A600061E0892B09F060E082E10E946C2C80918A
:102A7000F0018230F1F48091460390914703A091D8
:102A80004803B09149038C599F4FAF4FBF4F80937C
:102A9000EC019093ED01A093EE01B093EF0182E180
:102AA0000E94A22C61E0892B09F060E082E10E9483
:102AB0006C2C8091F0018330F1F480914603909169
:102AC0004703A0914803B09149038C509E4FAF4FEC
:102AD000BF4F8093EC019093ED01A093EE01B09372
:102AE000EF0182E10E94A22C61E0892B09F060E0F5
:102AF00082E10E946C2C8091F001843001F580917C
:102B0000460390914703A0914803B091490388512F
:102B10009C4FAF4FBF4F8093EC019093ED01A0937A
:102B2000EE01B093EF0182E10E94A22C61E0892BBB
:102B300009F060E082E11F910F910C946C2C1F91C1
:102B40000F910895AF92BF92CF92DF92EF92FF92D2
:102B50000F931F930E945B2B00913E0310913F0344
:102B600020914003309141030617170728073907C2
:102B700008F048C00E945B2B68537F4F8F4F9F4FD8
:102B800060933E0370933F0380934003909341030F
:102B90008FE00E94ED2BBC01882777FD8095982F50
:102BA0001F921F921F9226E92F93F4E6AF2EB12CAD
:102BB000C12CD12C17E0E12E12E0F12E00E010E044
:102BC00028E531E040E050E00E9454316093320348
:102BD0000F900F900F900F9080913803861730F070
:102BE000809137038F5F8093370302C010923703C1
:102BF000809137038B3020F081E08093000202C087
:102C0000109200021F910F91FF90EF90DF90CF90F4
:102C1000BF90AF9008958AE293E00E94EE0620E014
:102C20004FEF57E060E070E08AE293E00E944507D2
:102C300021E04FEF57E060E070E08AE293E00E940D
:102C4000450780913503811124C020E040E151E027
:102C500060E070E08AE293E00E94A90721E048E08A
:102C600053E060E070E08AE293E00E94A90722E06E
:102C700040E154E060E070E08AE293E00E94A9073E
:102C800023E040E155E060E070E08AE293E00E94DA
:102C9000A90780913503813069F520E049EC50E0C7
:102CA00060E070E08AE293E00E94A90721E045EF2E
:102CB00051E060E070E08AE293E00E94A90722E020
:102CC00049EE53E060E070E08AE293E00E94A907D9
:102CD00023E041EC54E060E070E08AE293E00E947F
:102CE000A90724E041ED54E060E070E08AE293E05F
:102CF0000E94A9076DE171E087E594E00C94352FFF
:102D00008EE293E00C94EE06CF92DF92EF92FF9268
:102D100026E040E855E260E070E087E594E00E943C
:102D2000AE2D6AE070E082EF91E00E94D1310E9406
:102D30001F0E60910A0170910B0180E090E00E94EB
:102D4000F1336B017C0160918E0270918F02809152
:102D50009002909191020E94F1339B01AC01C70156
:102D6000B6010E9458336093740270937502809389
:102D70007602909377020E9480160E940B1662E002
:102D800084E00E94332C61E085E00E94332C61E0F6
:102D900082E10E94332C61E082E00E94332C109289
:102DA000F9011092F801FF90EF90DF90CF90089515
:102DB000CF93DF93C0918602D0918702D093030214
:102DC000C09302022091880230918902A091790279
:102DD000B0917A020E948D3528EE33E040E050E059
:102DE0000E94683530936A02209369022091920212
:102DF00030E02852310949E0429FC001439F900DC5
:102E0000112465E070E00E943235605E7F4F2091B2
:102E10007C0230E040917B02621773071CF4109231
:102E2000710208C0842F90E0861797071CF081E09C
:102E300080937102842F90E0861797071CF482E03C
:102E40008093710280919402A09193028A1770F48A
:102E5000B0E0A81BB1092AE330E00E949C3524E6CB
:102E600030E040E050E00E94683503C020E030E0F0
:102E7000A90110927002C43D67E0D60768F4809102
:102E80007D0290E0A0E0B0E082179307A407B507A9
:102E900018F481E080937002CE01845D9740803DFC
:102EA000974068F480917E0290E0A0E0B0E0821745
:102EB0009307A407B50718F481E080937002CE0150
:102EC000845A9F40803A9F4068F480917E0290E04F
:102ED000A0E0B0E082179307A407B50718F481E0DB
:102EE00080937002CE0184549F41803A9F4068F4E1
:102EF00080917E0290E0A0E0B0E082179307A407E3
:102F0000B50718F481E080937002CE01845E9E4282
:102F1000803A9F4068F480917E0290E0A0E0B0E0AB
:102F200082179307A407B50718F481E08093700215
:102F3000CE0184589E43803A9F4068F480917E027F
:102F400090E0A0E0B0E082179307A407B50718F45B
:102F500081E080937002CE0184529E44803A9F406B
:102F600068F480917E0290E0A0E0B0E082179307C1
:102F7000A407B50718F481E080937002CE01845C49
:102F80009D45803A9F4018F0C436DD4668F0809138
:102F90007E0290E0A0E0B0E082179307A407B50797
:102FA00018F481E08093700284E00E94A22C892BA7
:102FB00019F481E08093FF0184E00E94A22C019724
:102FC00011F41092FF01809186029091870284385B
:102FD000904718F082E08093FF018091950290E085
:102FE000FC013197EA30F105E0F5EC5CFF4F0C9401
:102FF000873581E00AC082E08093720210927302EA
:1030000061E02BC083E001C084E0809372021092E3
:10301000730221C085E0809372021BC085E080931B
:10302000720284E016C085E08093720283E011C0D2
:1030300085E08093720282E08093730260E00DC0AD
:1030400085E08093720281E004C085E08093720283
:1030500086E08093730260E082E0DF91CF910C9470
:103060006C2CDF91CF91089547E06AE08EE293E007
:103070000E94A40646E069E08AE293E00E94A4066A
:1030800020E042E068E08BE093E00E942B2588E995
:1030900092E00E945B25109292026EED71E082EF49
:1030A00091E00C940E3282EF91E00E94A0318BE00F
:1030B00093E00C94D22480913903811101C00895CA
:1030C0008BE093E00E942A24892B51F08BE093E05F
:1030D0000E949C23682F88E992E00E946228F0CF2A
:1030E00008954091460350914703609148037091C1
:1030F00049038091180190911901A0911A01B09192
:103100001B0184179507A607B707B8F40E94F60BB2
:103110008091460390914703A0914803B0914903E1
:103120000A96A11DB11D8093180190931901A093D7
:103130001A01B0931B010E945B1840914603509105
:103140004703609148037091490380911401909165
:103150001501A0911601B091170184179507A607D4
:10316000B707C0F40E94680C809146039091470312
:10317000A0914803B09149038C599F4FAF4FBF4F67
:103180008093140190931501A0931601B093170139
:103190000E945B1840914603509147036091480399
:1031A000709149038091100190911101A091120139
:1031B000B091130184179507A607B707B8F40E94CA
:1031C000CE0C8091460390914703A0914803B091A3
:1031D00049030A96A11DB11D80931001909311011E
:1031E000A0931201B09313010E945B184091460313
:1031F00050914703609148037091490380910C01FD
:1032000090910D01A0910E01B0910F0184179507C7
:10321000A607B707C0F40E94280D8091460390913D
:103220004703A0914803B09149038C599F4FAF4F7A
:10323000BF4F80930C0190930D01A0930E01B093AA
:103240000F010E945B1880917002882321F060E0DA
:1032500085E00E946C2C80917002811104C061E0B5
:1032600085E00C946C2C0895CF93C1E087E594E041
:103270000E94CB2C892B89F087E594E00E94E42CF6
:103280008D3019F4C093F101F1CF8A3079F3682FB2
:1032900082EF91E00E946832E9CFCF9108954F927A
:1032A0005F926F927F928F929F92AF92BF92CF92D6
:1032B000DF92EF92FF921F93CF93DF9300D000D065
:1032C00000D0CDB7DEB78091F90190E08A3091054A
:1032D00010F00C949222FC01E25CFF4F2091F80167
:1032E0000C948735211105C00E943B1281E0809328
:1032F000F8018091F801813039F48091F10188233F
:1033000019F083E08093F8018091F801833011F087
:103310000C9492226AE971E0CE0101960E940E326D
:10332000BE016F5F7F4F82EF91E00E949A32182FAB
:10333000CE0101960E94A0311123C1F087E594E0EF
:103340000E941F2F67E876E087E594E00E94F32E45
:103350006EED71E082EF91E00E9424321092F10153
:1033600081E08093F80182E08093F9016CE271E0E2
:10337000CE0101960E940E32BE016F5F7F4F82EF39
:1033800091E00E949A32182FCE0101960E94A0313E
:10339000112399F06BE776E087E594E00E94F32E25
:1033A0006EED71E082EF91E00E9424321092F10103
:1033B00081E08093F8018093F90164E971E0CE0126
:1033C00001960E940E32BE016F5F7F4F82EF91E047
:1033D0000E949A32182FCE0101960E94A03111232B
:1033E000A1F0809171028F5F833018F48093710295
:1033F00002C0109271026EED71E082EF91E00E94C6
:1034000024321092F1011092F8016EE271E0CE01C7
:1034100001960E940E32BE016F5F7F4F82EF91E0F6
:103420000E949A32182FCE0101960E94A0311123DA
:1034300081F08091700291E08927809370026EED97
:1034400071E082EF91E00E9424321092F10110921B
:10345000F80162EA71E0CE0101960E940E32BE01CF
:103460006F5F7F4F82EF91E00E949A32182FCE015A
:1034700001960E94A031112369F1809172029CEFA4
:10348000980F933018F08F5F8093720290917202C0
:103490008CEF890F833068F4809173028F5F809383
:1034A0007302873030F081E0809373029F5F9093C6
:1034B000720280917202883018F081E0809372026B
:1034C0006EED71E082EF91E00E9424321092F101E2
:1034D0001092F80160E371E0CE0101960E940E3275
:1034E000BE016F5F7F4F82EF91E00E949A32182FEA
:1034F000CE0101960E94A0311123A1F08091FF011D
:103500008F5F833018F48093FF0102C01092FF0197
:103510006EED71E082EF91E00E9424321092F10191
:103520001092F80162E371E0CE0101960E940E3222
:10353000BE016F5F7F4F82EF91E00E949A32182F99
:10354000CE0101960E94A031112381F08091FD01EE
:1035500091E089278093FD016EED71E082EF91E0AB
:103560000E9424321092F1011092F80164E371E09C
:10357000CE0101960E940E32BE016F5F7F4F82EF37
:1035800091E00E949A32182FCE0101960E94A0313C
:103590001123A1F08091FC018F5F833018F4809398
:1035A000FC0102C01092FC016EED71E082EF91E02F
:1035B0000E9424321092F1011092F80166E371E04A
:1035C000CE0101960E940E32BE016F5F7F4F82EFE7
:1035D00091E00E949A32182FCE0101960E94A031EC
:1035E000112381F08091FB0191E089278093FB01F9
:1035F0006EED71E082EF91E00E9424321092F101B1
:103600001092F80168E371E0CE0101960E940E323B
:10361000BE016F5F7F4F82EF91E00E949A32182FB8
:10362000CE0101960E94A0311123A1F08091FE01EC
:103630008F5F833018F48093FE0102C01092FE0168
:103640006EED71E082EF91E00E9424321092F10160
:103650001092F8016AE371E0CE0101960E940E32E9
:10366000BE016F5F7F4F82EF91E00E949A32182F68
:10367000CE0101960E94A031112381F080910002B9
:1036800091E08927809300026EED71E082EF91E076
:103690000E9424321092F1011092F8016CE371E063
:1036A000CE0101960E940E32BE016F5F7F4F82EF06
:1036B00091E00E949A32182FCE0101960E94A0310B
:1036C000112349F187E594E00E941F2F87E594E0DC
:1036D0000E941F2F61E676E087E594E00E94232F89
:1036E0000E94580F6CE376E087E594E00E94232F58
:1036F00087E594E00E941F2F87E594E00E941F2F2A
:103700006EED71E082EF91E00E9424321092F1019F
:1037100081E08093F8016EE371E0CE0101960E9492
:103720000E32BE016F5F7F4F82EF91E00E949A32AE
:10373000182FCE0101960E94A031112309F495C0E3
:1037400087E594E00E941F2F87E594E00E941F2FD9
:1037500067EF75E087E594E00E94232F6AED75E03E
:1037600087E594E00E94232F87E594E00E941F2FB5
:1037700060EA75E087E594E00E94F32E80913503BE
:103780008130B1F42091790230917A02A4EDB0E356
:103790000E948D3528EE33E040E050E00E9468350D
:1037A000BA01A9012AE030E087E594E00E94EA2FFF
:1037B00080913503811110C02091790230917A02F5
:1037C000A4E6B0E00E948D35AB01BC012AE030E0F8
:1037D00087E594E00E94EA2F87E594E00E941F2F7E
:1037E00060E975E087E594E00E94F32E809135034F
:1037F000813031F46AE875E087E594E00E94232F78
:1038000080913503811106C063E875E087E594E097
:103810000E94232F63E775E087E594E00E94F32E72
:1038200040918E0250918F026091900270919102AE
:103830002AE030E087E594E00E94433087E594E099
:103840000E941F2F61E675E087E594E00E94F32E49
:103850006EED71E082EF91E00E9424321092F1014E
:1038600087E08093F9011092F80160E471E0CE01E5
:1038700001960E940E32BE016F5F7F4F82EF91E092
:103880000E949A32182FCE0101960E94A031112376
:1038900009F46CC064E175E087E594E00E94232F91
:1038A00061EE74E087E594E00E94232F87E594E0C1
:1038B0000E941F2F69EC74E087E594E00E94F32ECC
:1038C000E2E8FCE064914AE050E087E594E00E9481
:1038D000093064EB74E087E594E00E94F32E4AE03F
:1038E00050E060917C0287E594E00E9410306CE922
:1038F00074E087E594E00E94F32EE1E8FCE0649137
:103900004AE050E087E594E00E94093067E874E0FF
:1039100087E594E00E94F32E4AE050E060917B023C
:1039200087E594E00E9410306CE674E087E594E04F
:103930000E94F32E4AE050E060917C0287E594E01B
:103940000E94093068E674E087E594E00E94232F26
:103950006EED71E082EF91E00E9424321092F1014D
:1039600083E08093F90181E08093F80162E471E0E3
:10397000CE0101960E940E32BE016F5F7F4F82EF33
:1039800091E00E949A32182FCE0101960E94A03138
:10399000112369F06EED71E082EF91E00E94243214
:1039A0001092F10184E08093F9011092F80164E42F
:1039B00071E0CE0101960E940E32BE016F5F7F4F13
:1039C00082EF91E00E949A32182FCE0101960E9458
:1039D000A0311123E9F087E594E00E941F2F6DE2EA
:1039E00074E087E594E00E94232F62E174E087E5AC
:1039F00094E00E94232F6EED71E082EF91E00E942F
:103A000024321092F10185E08093F9011092F801BF
:103A100066E471E0CE0101960E940E32BE016F5F36
:103A20007F4F82EF91E00E949A32182FCE010196CB
:103A30000E94A0311123F9F087E594E00E941F2F26
:103A400087E594E00E941F2F6CE074E087E594E026
:103A50000E94F32E0E94501087E594E00E941F2FD1
:103A60006EED71E082EF91E00E9424321092F1013C
:103A700081E08093F80168E471E0CE0101960E9434
:103A80000E32BE016F5F7F4F82EF91E00E949A324B
:103A9000182FCE0101960E94A0311123A9F087E5CD
:103AA00094E00E941F2F0E94B71187E594E00E94C6
:103AB0001F2F6EED71E082EF91E00E942432109290
:103AC000F10181E08093F8016AE471E0CE01019692
:103AD0000E940E32BE016F5F7F4F82EF91E00E9425
:103AE0009A32182FCE0101960E94A031112309F4B9
:103AF00048C087E594E00E941F2F87E594E00E946C
:103B00001F2F61ED73E087E594E00E94232F60EAA8
:103B100073E087E594E00E94232F6EE873E087E569
:103B200094E00E94F32E4AE050E06091320387E572
:103B300094E00E9410306AE773E087E594E00E9409
:103B4000F32E4AE050E06091380387E594E00E944C
:103B5000103087E594E00E941F2F69E673E087E547
:103B600094E00E94232F6EED71E082EF91E00E94BD
:103B700024321092F10188E08093F90183E0809370
:103B8000F8016CE471E0CE0101960E940E32BE0194
:103B90006F5F7F4F82EF91E00E949A32182FCE0123
:103BA00001960E94A031112351F1809135038F5F5E
:103BB000823018F48093350302C01092350387E5F4
:103BC00094E00E941F2F87E594E00E941F2F68E277
:103BD00073E087E594E00E94232F87E594E00E943C
:103BE0001F2F87E594E00E941F2F6EED71E082EF9A
:103BF00091E00E9424321092F1011092F8016EE4DB
:103C000071E0CE0101960E940E32BE016F5F7F4FC0
:103C100082EF91E00E949A32182FCE0101960E9405
:103C2000A0311123A1F187E594E00E941F2F87E5C1
:103C300094E00E941F2F64EE72E087E594E00E94FA
:103C4000232F87E594E00E941F2F6DED72E087E53A
:103C500094E00E94F32E4AE050E06091780287E5FC
:103C600094E00E94093069ED72E087E594E00E94DB
:103C7000F32E89E08093F90183E08093F8016EEDE3
:103C800071E082EF91E00E9424321092F1016AEB20
:103C900071E0CE0101960E940E32BE016F5F7F4F30
:103CA00082EF91E00E949A32182FCE0101960E9475
:103CB000A0311123E9F087E594E00E941F2F64EC06
:103CC00072E087E594E00E94232F0E94DA0E6EEBEB
:103CD00072E087E594E00E94232F6EED71E082EFA1
:103CE00091E00E9424321092F10181E08093F8016A
:103CF00060E571E0CE0101960E940E32BE016F5F59
:103D00007F4F82EF91E00E949A32182FCE010196E8
:103D10000E94A0311123B9F06EED71E082EF91E0C5
:103D20000E9424321092F10181E08093F80187E52E
:103D300094E00E941F2F6DEA72E087E594E00E94F4
:103D4000232F1092330362E571E0CE0101960E94A9
:103D50000E32BE016F5F7F4F82EF91E00E949A3278
:103D6000182FCE0101960E94A0311123A9F08EE2F6
:103D700093E00E94EE0661EA72E087E594E00E941B
:103D8000232F6EED71E082EF91E00E9424321092B9
:103D9000F10181E08093F8018091F101882309F419
:103DA000C1C31092F8011092F90101C3213039F416
:103DB0008091F101882319F083E08093F8018091CC
:103DC000F801833009F0AEC382EF91E00E94D33254
:103DD000660F771F660F771F7093030260930202CE
:103DE00038C0233009F09EC38091F101882309F483
:103DF00099C382EF91E00E94D3326093780287E505
:103E000094E00E941F2F68E872E087E594E00E942A
:103E1000232F1092F90181E066C2213039F480919C
:103E2000F101882319F083E08093F8018091F80173
:103E3000833009F077C382EF91E00E94D33244E6E9
:103E4000469F9001479F300D112430936A022093C2
:103E500069021092F901A9C2213049F58091F1015E
:103E6000882329F182EF91E00E94D33260937C0293
:103E70006EED71E082EF91E00E9424321092F10128
:103E800083E08093F8016DE672E087E594E00E949C
:103E9000F32E4AE050E060917B0287E594E00E94B7
:103EA000093069E672E087E594E00E94232F809153
:103EB000F801833009F036C38091F101882309F4B9
:103EC00031C382EF91E00E94D33260937B02C1CF75
:103ED00021110EC00E94041466E472E087E594E0AC
:103EE0000E94232F84E08093F90182E08093F801FF
:103EF0008091F801823009F07BC18091F101882323
:103F000009F476C16AE971E0CE0101960E940E3291
:103F1000BE016F5F7F4F82EF91E00E949A32182FAF
:103F2000CE0101960E94A031112309F42BC0EDE6C9
:103F3000FCE0E491E0937D02EEE6FCE0E491E093A6
:103F40007E02EFE6FCE0E491E0937F02E0E7FCE034
:103F5000E491E0938002E1E7FCE0E491E0938102E8
:103F6000E2E7FCE0E491E0938202E3E7FCE0E49125
:103F7000E0938302E4E7FCE0E491E0938402E5E768
:103F8000FCE03FC06CE271E0CE0101960E940E326F
:103F9000BE016F5F7F4F82EF91E00E949A32182F2F
:103FA000CE0101960E94A031112309F43BC0E4E642
:103FB000FCE0E491E0937D02E5E6FCE0E491E0932F
:103FC0007E02E6E6FCE0E491E0937F02E7E6FCE0B7
:103FD000E491E0938002E8E6FCE0E491E093810262
:103FE000E9E6FCE0E491E0938202EAE6FCE0E49199
:103FF000E0938302EBE6FCE0E491E0938402ECE6DC
:10400000FCE0E491E09385026EED71E082EF91E0D7
:104010000E9424321092F10184E08093F901109201
:10402000F801E6C064E571E0CE0101960E940E320F
:10403000BE016F5F7F4F82EF91E00E949A32182F8E
:10404000CE0101960E94A031112371F063E272E06B
:1040500087E594E00E94232F88E20E94C10D90938F
:104060007A028093790216C06EE271E0CE01019669
:104070000E940E32BE016F5F7F4F82EF91E00E947F
:104080009A32182FCE0101960E94A031112369F0B7
:104090000E94CE0F6EED71E082EF91E00E9424321B
:1040A0001092F1011092F901BACF62EA71E0CE01EB
:1040B00001960E940E32BE016F5F7F4F82EF91E04A
:1040C0000E949A32182FCE0101960E94A03111232E
:1040D000C9F087E594E00E941F2F6BE072E087E54E
:1040E00094E00E94232F6EED71E082EF91E00E9438
:1040F00024321092F10186E08093F90183E08093ED
:10410000F80176C082EF91E00E94D3326DE571E054
:1041100082EF91E00E947B32811141C066E571E03F
:1041200082EF91E00E947B32811139C06AE571E033
:1041300082EF91E00E947B32811131C06FE571E026
:1041400082EF91E00E947B32811129C064E671E028
:1041500082EF91E00E947B32811121C069E671E01B
:1041600082EF91E00E947B32811119C06EE671E00E
:1041700082EF91E00E947B32811111C063E771E010
:1041800082EF91E00E947B32811109C068E771E003
:1041900082EF91E00E947B32882309F4BBC182EF59
:1041A00091E00E94D33270937A026093790265EFB6
:1041B00071E087E594E00E94F32E6091790270919E
:1041C0007A024AE050E087E594E00E94273062EFEF
:1041D00071E087E594E00E94232F83E08093F8014B
:1041E0001092F1016EED71E082EF91E00E942432B5
:1041F0001091F801133009F095C18091F1018823E5
:1042000009F490C1A0907902B0907A0282EF91E017
:104210000E94D3326B017C016EED71E082EF91E080
:104220000E9424321092F1018FEFC816D10448F099
:104230006BEA71E087E594E00E94232F1093F80168
:1042400071C1A114B10419F4C0927D0220C084EFA1
:10425000A81681E0B80619F4C0927E0218C088EE54
:10426000A81683E0B80619F4C0927F0218C080ED4A
:10427000A81687E0B80619F4C092800220C088EB27
:10428000A8168BE0B80619F4C09281021FC080EA1C
:10429000A8168FE0B80619F4C092820217C088E809
:1042A000A81683E1B80619F4C09283020FC080E714
:1042B000A81687E1B80619F4C092840207C088E501
:1042C000A8168BE1B80611F4C09285020E9404146E
:1042D00087E594E00E941F2F68E871E087E594E08D
:1042E0000E94232F82E08093F80161C021111AC13E
:1042F0008091F101882309F415C182EF91E00E94B9
:10430000D33260938E0270938F02809390029093C9
:10431000910263E771E087E594E00E94232F6EED40
:1043200071E082EF91E00E9424321092F101EFC01F
:10433000233009F0F7C08091F101882309F4F2C01D
:1043400082EF91E00E94D332609338036AE571E016
:1043500087E594E00E94232F6EED71E082EF91E0FB
:104360000E9424321092F1011092F9011092F8018A
:10437000D9C0233009F0D6C08091F101882309F417
:10438000D1C082EF91E00E94D3326F3F710541F0BE
:1043900038F069E471E087E594E00E94232F02C0C1
:1043A0006093940284E08093F9011092F8016EED1D
:1043B00071E082EF91E00E9424321092F101B2C0CC
:1043C0002111B0C08091F101882309F4ABC082EFC4
:1043D00091E00E94D3322B013C016EED71E082EF3F
:1043E00091E00E9424321092F10163E371E087E5CD
:1043F00094E00E94232F8091F101811103C00E945B
:104400003419F9CF82EF91E00E94D3326B017C0125
:10441000A0907902B0907A02D20120EA36E841E019
:1044200050E00E94AE359601442737FD4095542F49
:104430000E946835D5010E94A33520EA36E841E0A4
:1044400050E00E94683530937A022093790287E524
:1044500094E00E941F2F6BE171E087E594E00E94D9
:10446000232F61E171E087E594E00E94232FBAE0F9
:10447000CB2ED12CE12CF12C18EE812E13E0912EB5
:10448000A12CB12C4AE050E06C2D87E594E00E940D
:1044900009306DE771E087E594E00E94162FA09146
:1044A0007902B0917A02A70196010E94A335A50175
:1044B00094010E946835BA01A9012AE030E087E53D
:1044C00094E00E94EA2F8FE0C80ED11CE11CF11C81
:1044D00083E7C816D104E104F104A1F687E594E06E
:1044E0000E941F2F62EF70E087E594E00E94232F67
:1044F00087E594E00E941F2F6EED71E082EF91E05E
:104500000E9424321092F10181E08093F801109210
:10451000F90108C06DED71E087E594E00E94232F5A
:1045200082E05CCE26960FB6F894DEBF0FBECDBFFC
:10453000DF91CF911F91FF90EF90DF90CF90BF90D0
:10454000AF909F908F907F906F905F904F90089565
:104550000F931F930E945B2B609346037093470356
:1045600080934803909349030E94E6140E94A21589
:1045700060E38EE293E00E94390860E48EE293E00B
:104580000E94390860E58EE293E00E94390880912C
:10459000460390914703A0914803B091490340918D
:1045A00042035091430360914403709145034817BF
:1045B00059076A077B0770F4AC01BD0148515C4F95
:1045C0006F4F7F4F409342035093430360934403E4
:1045D000709345030B97A105B105A8F080913303B3
:1045E000813089F08091FA0181110DC00E94B50BD4
:1045F00061E070E080E090E00E948A2B0E94B50BA1
:1046000081E08093FA018091460390914703A09145
:104610004803B091490380339547A105B10568F47B
:1046200080913303813049F08091F101882329F092
:1046300081E0809333031092F1018091330388234A
:1046400059F0813009F075C08093F0010E94711813
:104650001F910F910C944F198AE293E00E94BF06BC
:10466000882371F00E94A80B0E945B2B60933A0391
:1046700070933B0380933C0390933D031092F001B1
:104680008091460390914703A0914803B09149035C
:1046900040913A0350913B0360913C0370913D037C
:1046A0008C019D01085E1340210931094017510713
:1046B0006207730798F41092870210928602109294
:1046C0008902109288021092920210929302109224
:1046D00073021092720223E02093F001893823E1E3
:1046E0009207A105B105F8F088589341A109B109D5
:1046F000481759076A077B07B0F40E940B16809190
:10470000460390914703A0914803B0914903805D0F
:104710009740A109B10980933A0390933B03A0937A
:104720003C03B0933D030E94D8161F910F910C9447
:1047300071181F910F91089520918C0330918D0372
:1047400028173907B9F490914A0380914B039817C1
:1047500089F0E0914A03F0E0E45BFC4F8081209116
:104760004A0330E02F5F3F4F2F73332720934A03D4
:1047700090E008958FEF9FEF08951F93CF93DF93FD
:10478000DC015C968D919C915D97009749F481E0E6
:1047900090E013969C938E93129780E090E03BC03C
:1047A0005196ED91FC91529750962C915097322F43
:1047B00030951FB75E964C915E9741FB772770F955
:1047C00041FD6095F8944081772311F0422B01C0A0
:1047D00043234083EC012197F1F748E0508160FFCB
:1047E00002C0522B01C053235083EC012197F1F7F3
:1047F0006695415099F78081772311F0832301C09A
:10480000822B80831FBF5C968D919C915D97019751
:10481000F1F781E090E0DF91CF911F910895089525
:1048200020918C0330918D032817390781F49091E2
:104830004A0380914B03981751F0E0914A03F0E04E
:10484000E45BFC4F8081992787FD909508958FEF59
:104850009FEF089520918C0330918D03281739071D
:1048600071F480914B0320914A0390E0805C9F4F4C
:10487000821B910960E470E00E943235089580E067
:1048800090E00895E0918C03F0918D03E817F9070B
:1048900069F4A389B4899C918589809589238C9337
:1048A00010928D0310928C0381E0089580E00895AA
:1048B0001F920F920FB60F9211242F933F934F9395
:1048C0005F936F937F938F939F93AF93BF93EF9378
:1048D000FF93E0918C03F0918D03309709F451C060
:1048E000868DA685B785958581FF04C08C91892327
:1048F00029F447C08C91892309F043C0A389B48966
:104900009C918589809589238C93868997890197C5
:10491000F1F7208D318DA685B785758558E040E08B
:10492000C9010197F1F7842F90E095958795482F5D
:104930006C91672309F04068515091F7868D81FD95
:10494000409580914B0390E001968F7399272091B9
:104950004A03281749F0A0914B03B0E0A45BBC4F79
:104960004C9380934B0303C0868D8160868F828D2C
:10497000938D0197F1F7A389B4898C919589892B3F
:104980008C93FF91EF91BF91AF919F918F917F9108
:104990006F915F914F913F912F910F900FBE0F90AC
:1049A0001F90189524E831E0FC01318320830C949A
:1049B00042241F93CF93DF93EC01162F6E8D6695E3
:1049C000617081E06827812F0E946C2C61E0812F4B
:1049D0000E94332C812F90E0FC01E856F34FE491C4
:1049E000E88BFC01E455F34FE491F0E0EE0FFF1F7C
:1049F000E653F34F859194919A8B898BDF91CF91F8
:104A00001F9108951F93CF93DF93EC01162F60E061
:104A1000812F0E94332C8E8D81FD04C061E0812F97
:104A20000E946C2C1C87812F90E0FC01E856F34F0C
:104A3000E491ED87FC01E455F34FE491F0E0EE0FD3
:104A4000FF1FE054F34F859194919F878E87DF91EC
:104A5000CF911F910895FF920F931F93CF93DF93F0
:104A6000EC01F62E522F1B821A8208EE13E020E092
:104A700030E00C831D832E833F8384E891E099838B
:104A800088831F8A1E8A198E188E1B8E1A8E1D8E81
:104A90001C8E8E8D8E7F50FB81F98E8F642FCE0100
:104AA0000E94D9246F2DCE01DF91CF911F910F91DC
:104AB000FF900C9402250F931F93FC010FEF1FEF43
:104AC0009801008311832283338310861186128616
:104AD00013864FEF59EC6AE97BE3408B518B628B75
:104AE000738B408F518F628F738F40A351A362A34A
:104AF00073A340A751A762A773A740AB51AB62ABAA
:104B000073AB00AF11AF22AF33AFDC01A05CBF4F7E
:104B10008FEF90E011969C938E9314960D931D93B6
:104B20002D933C93139718960D931D932D933C93BF
:104B3000139718961C9211961C92509682E08C93B3
:104B400011961C9211961C9211961C9211961D9210
:104B50001D921D921C921397149611961C921E92F0
:104B600012961D921C92EA5AFF4F10821F910F91CC
:104B700008952FEB260F862F992787FD90952630D5
:104B800010F4C79708956156663018F48755910957
:104B90000895C09708950F931F93FB0160E070E0A4
:104BA000CB01019120ED200F2A30A0F4AAE0B0E063
:104BB0009B01AC010E94A335112707FD1095212F01
:104BC000312F600F711F821F931F6053710981097C
:104BD0009109E7CF1F910F9108950F931F93CF93E2
:104BE000FC01EA5AFF4FC1E020812D3219F0C0E0EC
:104BF0008F0103C08C01095A1F4FB8010E94CB25B9
:104C00009B01AC01A4E6B0E00E94A335F801DF01EE
:104C1000219130ED320F3A30D0F32E3269F51196F2
:104C20002C91119730ED320F3A3030F5332727FDB4
:104C30003095205331094AE0429F8001439F100D77
:104C40001124222717FD2095322F600F711F821F1C
:104C5000931F12960C9120ED200F2A3068F4112733
:104C600007FD109500531109222717FD2095322FBB
:104C7000600F711F821F931FCC2339F09095809590
:104C8000709561957F4F8F4F9F4FCF911F910F91DF
:104C900008954F925F926F927F928F929F92AF9200
:104CA000BF92CF92DF92EF92FF92CF93DF93EC010E
:104CB000CA5ADF4FBE010E94CB252B013C0124E6DE
:104CC00030E040E050E00E9446359B01AC0160EAD4
:104CD00076E881E090E00E940E356B017C01FE01D8
:104CE000819190ED980F9A30D8F38E3219F5EF013B
:104CF00080E1882E87E2982EA12CB12CA99180ED1D
:104D00008A0F8A30B8F4BB27A7FDB095D097A501CC
:104D100094010E94AE35C60ED71EE81EF91EC501CD
:104D2000B4012AE030E040E050E00E9446354901FD
:104D30005A01E4CFC701B6016D5F7F4F8F4F9F4F80
:104D400026E030E040E050E00E94463569017A01FB
:104D5000C301B20124E630E040E050E00E94463555
:104D600060E472E48FE090E00E940E35C60ED71E1C
:104D7000E81EF91EC701B601DF91CF91FF90EF90B9
:104D8000DF90CF90BF90AF909F908F907F906F906B
:104D90005F904F900895DB01FA018D91882319F0FF
:104DA00091918917D1F3992787FD90950895CF9216
:104DB000DF92EF92FF921F93CF93DF93EC01FC0100
:104DC000EB5AFF4F1081112309F4A9C0319660817D
:104DD0000E94B925182FFE01E95AFF4F6081CE01CC
:104DE0000E94B92540E1149F800D1124FE01EC5A68
:104DF000FF4F908189138AC074961081112309F4A2
:104E000058C1359680819181019691838083B597B1
:104E100080819181A281B381349780839183A28321
:104E2000B3833C9680819181A281B3813497808342
:104E30009183A283B383799680818823A1F1813005
:104E400009F037C18C819D81AE81BF8188839983B0
:104E5000AA83BB838C859D85AE85BF85888799870E
:104E6000AA87BB878C899D89AE89BF89888B998BDE
:104E7000AA8BBB8B8C8D9D8DAE8DBF8D888F998FAE
:104E8000AA8FBB8F8CA59DA5AEA5BFA588A799A706
:104E9000AAA7BBA78CA99DA9AEA9BFA988AB99ABAE
:104EA000AAABBBAB06C18CA19DA1AEA1BFA188A33B
:104EB00099A3AAA3BBA38C819D81AE81BF81888366
:104EC0009983AA83BB838C899D89AE89BF89888B8E
:104ED000998BAA8BBB8B8C8D9D8DAE8DBF8D888F52
:104EE000998FAA8FBB8FFE01E05CFF4FDE01AE5BA6
:104EF000BF4F8D919C91918380838CAD9DADAEAD64
:104F0000BFAD88AF99AFAAAFBBAFD3C0C159DF4F18
:104F10008881998101969983888310E0CAC0FC0139
:104F2000EA59FF4F30818B599F4F7C0131111DC0D1
:104F30006E0196E5C90ED11C40E951E0B601CE01E3
:104F40000E94CB26892B11F481E00CC046E951E088
:104F5000B601CE010E94CB26892B19F4F7011082ED
:104F6000A8C082E0D7018C93A4C0DC01EC91E230B0
:104F700009F49FC0CE018A5A9F4FDC012C91222355
:104F800009F497C0B0E2EB9FF0011124E32B3197B5
:104F9000E932F10508F08DC0E85BFF4F0C948735CE
:104FA000CE010E94ED256C837D838E839F830E94BA
:104FB0005B2BC85BDF4F12C0C859DF4F81E0213443
:104FC00009F05DC05DC0CE010E9449266C8B7D8BCF
:104FD0008E8B9F8B0E945B2BC05BDF4F6883798336
:104FE0008A839B8366C0233509F063C08C899D89C1
:104FF000AE89BF89B095A095909581959F4FAF4F91
:10500000BF4F8C8B9D8BAE8BBF8B53C0CE010E944C
:1050100049266C8F7D8F8E8F9F8F4BC0273509F06F
:1050200048C08C8D9D8DAE8DBF8DB095A09590950F
:1050300081959F4FAF4FBF4F8C8F9D8FAE8FBF8F8E
:1050400038C0CE010E94ED256CA77DA78EA79FA733
:1050500030C0CE010E94ED256CAB7DAB8EAB9FAB1B
:1050600028C0BC01CE010E94CB256C877D878E872E
:105070009F871FC0C859DF4F81E021330CF480E0C7
:10508000888317C00E94A737CE5BDF4F992799838B
:1050900088830FC0CE010E94ED256CAF7DAF8EAF2F
:1050A0009FAF07C0CE010E94ED256CA37DA38EA308
:1050B0009FA3812FDF91CF911F91FF90EF90DF9001
:1050C000CF900895CF92DF92EF92FF920F931F93AC
:1050D000CF93DF931F92CDB7DEB76C01262FFC0173
:1050E000E759FF4F40815181628173814F5F5F4F6C
:1050F0006F4F7F4F40835183628373838C010959C3
:105100001F4F8B5A9F4F7C01243281F12CF42A309F
:1051100069F02D30E9F50AC02A3241F02C32C1F590
:10512000F601EC5AFF4F808182278083F80180814D
:105130008F3060F4F601E80FF11DEA5AFF4F10823C
:10514000C60129830E94D726298101C080E0F6018B
:10515000EA59FF4F90819F5F9083F801108291E0A0
:105160002A3209F090E0F70190832AC0F8011082FA
:10517000F601EA59FF4F108272971082719682E011
:105180008083F7011082F601E859FF4F108217C0A3
:10519000F80180818E3048F491E0980F9083F601F9
:1051A000E80FF11DEA5AFF4F2083F701808181113A
:1051B00006C0F601EC5AFF4F80818227808380E091
:1051C0000F90DF91CF911F910F91FF90EF90DF90A3
:1051D000CF900895CF93CFB7F89480918E0381112B
:1051E00027C0E6EBFCE08491E2EAFCE09491E82F32
:1051F000F0E0EE0FFF1FEC52F34FA591B4918C91AC
:10520000892321F461E08AE00E946C2C61E08AE04D
:105210000E94332C8CB580618CBD8CB580648CBDB4
:1052200061E08DE00E94332C61E08BE00E94332C22
:1052300080918E038F5F80938E03CFBFCF910895AF
:105240008091BE0390E02091BF03821B91090895D5
:105250002091BF038091BE03281750F4E22FF0E0A5
:10526000E054FC4F808190E02F5F2093BF030895AE
:105270008FEF9FEF0895E091BF038091BE03E81781
:1052800030F4F0E0E054FC4F808190E008958FEF1F
:105290009FEF08950895CF92DF92EF92FF920F93C0
:1052A0001F93CF93DF937C01CB018A0120919B0355
:1052B000222389F0EB016B01C40ED51ECC15DD0550
:1052C00069F06991D701ED91FC910190F081E02D99
:1052D000C7010995F3CF642F0E94BB29C801DF9154
:1052E000CF911F910F91FF90EF90DF90CF90089595
:1052F000CF93DF931F92CDB7DEB7698320919B03D5
:105300002223D1F020919C03203240F021E030E0B4
:10531000FC013383228380E090E015C080919D03DF
:10532000E82FF0E0E256FC4F998190838F5F8093E5
:105330009D0380939C0305C061E0CE0101960E940D
:10534000BB2981E090E00F90DF91CF910895FC019F
:105350001382128248EE53E060E070E0448355838C
:105360006683778380EC91E09183808308958FE852
:1053700093E00C94A729613298F420914D042430D5
:1053800089F460930204FC0184E094E0DC012A2F9C
:10539000281B261718F421912D93F9CF80E008954A
:1053A00081E0089582E0089585ED8093BC008091AE
:1053B000BC0084FDFCCF10924D04089585EC8093D1
:1053C000BC0010924D0408951F920F920FB60F92D9
:1053D00011242F933F934F935F936F937F938F93FA
:1053E0009F93AF93BF93EF93FF938091B900887F12
:1053F000803609F49EC078F5883209F45DC090F4D7
:10540000803109F456C038F4882309F4F5C0883097
:1054100009F44FC0F5C0883109F44EC0803209F458
:105420005FC0EEC0803409F46AC058F4803309F4D8
:1054300057C0883309F0E4C08093E0030E94DE295E
:10544000DFC0803509F44FC0883509F45DC0883469
:1054500009F0D6C0D3C0883909F4C4C0A8F488378D
:1054600009F467C038F4883609F463C0803709F45A
:1054700060C0C6C0883809F4B5C0803909F45FC07F
:10548000803809F0BDC05BC0803B09F483C038F4AC
:10549000803A09F466C0883A09F47CC0B1C0803C07
:1054A00009F4A4C0883C09F4A1C0883B09F487C072
:1054B000A7C080914C0410C09091250480912404D1
:1054C000981770F5E091250481E08E0F80932504F4
:1054D000F0E0EA5DFB4F80818093BB0085EC83C0E8
:1054E0008093E0038BC0E091250481E08E0F8093D0
:1054F00025048091BB00F0E0EA5DFB4F8083909132
:105500002504809124046BC0E091250481E08E0F76
:10551000809325048091BB00F0E0EA5DFB4F80831F
:1055200080914B0481116AC081E080934A0484EA2F
:105530005EC083E080934D041092E103CFCF809151
:10554000E103803208F04EC0E091E10381E08E0F6C
:105550008093E1038091BB00F0E0EE51FC4F80832B
:10556000BDCF0E94DE298091E103803230F4E091CA
:10557000E103F0E0EE51FC4F10826091E10370E036
:10558000E0914604F091470482EE93E00995109271
:10559000E10336C084E080934D041092030410921E
:1055A0000204E0914804F0914904099580910204B5
:1055B000811105C081E08093020410920404E091FF
:1055C000030481E08E0F80930304F0E0EC5FFB4F57
:1055D00080818093BB00909103048091020498170E
:1055E00008F47CCF85E88093BC000AC085EC8093EA
:1055F000BC0010924D0404C01092E0030E94D42914
:10560000FF91EF91BF91AF919F918F917F916F919A
:105610005F914F913F912F910F900FBE0F901F9070
:1056200018951F920F920FB60F9211242F933F934C
:105630008F939F93AF93BF9380914F0490915004A9
:10564000A0915104B091520430914E0423E0230FF5
:105650002D3720F40196A11DB11D05C026E8230FAA
:105660000296A11DB11D20934E0480934F04909388
:105670005004A0935104B09352048091530490912C
:105680005404A0915504B09156040196A11DB11D7A
:105690008093530490935404A0935504B0935604FC
:1056A000BF91AF919F918F913F912F910F900FBE1E
:1056B0000F901F9018952FB7F89460914F04709138
:1056C000500480915104909152042FBF08953FB728
:1056D000F8948091530490915404A0915504B09192
:1056E000560426B5A89B05C02F3F19F00196A11DB1
:1056F000B11D3FBF6627782F892F9A2F620F711D2A
:10570000811D911D42E0660F771F881F991F4A95E2
:10571000D1F70895CF92DF92EF92FF92CF93DF936C
:105720006B017C010E94672BEB01C114D104E104E1
:10573000F10489F00E94EE320E94672B6C1B7D0BF6
:10574000683E734090F381E0C81AD108E108F1087F
:10575000C851DC4FEACFDF91CF91FF90EF90DF90FF
:10576000CF900895789484B5826084BD84B58160BB
:1057700084BD85B5826085BD85B5816085BDEEE659
:10578000F0E0808181608083E1E8F0E01082808138
:1057900082608083808181608083E0E8F0E08081A6
:1057A00081608083E1EBF0E0808184608083E0EBC6
:1057B000F0E0808181608083EAE7F0E080818460AE
:1057C000808380818260808380818160808380810A
:1057D000806880831092C10008958E3008F08E504A
:1057E000877020911C0190E4299F90011124822B45
:1057F00080937C0080917A00806480937A0080910D
:105800007A0086FDFCCF809178002091790090E0AD
:10581000922B0895833081F028F4813099F0823002
:10582000A1F008958730A9F08830B9F08430D1F420
:10583000809180008F7D03C0809180008F7780935E
:105840008000089584B58F7702C084B58F7D84BDB4
:1058500008958091B0008F7703C08091B0008F7D54
:105860008093B0000895CF93DF9390E0FC01E85659
:10587000F34F2491FC01E455F34F8491882349F1BF
:1058800090E0880F991FFC01EC52F34FA591B49161
:105890008653934FFC01C591D4919FB7611108C005
:1058A000F8948C91209582238C93888182230AC05E
:1058B000623051F4F8948C91322F309583238C937D
:1058C0008881822B888304C0F8948C91822B8C93DE
:1058D0009FBFDF91CF9108950F931F93CF93DF93D5
:1058E0001F92CDB7DEB7282F30E0F901EC57F34F08
:1058F0008491F901E856F34F1491F901E455F34FFF
:1059000004910023C9F0882321F069830E940A2CA6
:105910006981E02FF0E0EE0FFF1FE653F34FA591F2
:10592000B4919FB7F8948C91611103C010958123B5
:1059300001C0812B8C939FBF0F90DF91CF911F915E
:105940000F910895CF93DF93282F30E0F901EC57A2
:10595000F34F8491F901E856F34FD491F901E455DE
:10596000F34FC491CC2391F081110E940A2CEC2FAB
:10597000F0E0EE0FFF1FE054F34FA591B4912C918E
:105980002D2381E090E021F480E002C080E090E0EF
:10599000DF91CF910895FC01818D228D90E0805C94
:1059A0009F4F821B91098F7399270895FC01918D58
:1059B000828D981731F0828DE80FF11D858D90E072
:1059C00008958FEF9FEF0895FC01918D828D9817B8
:1059D00061F0828DDF01A80FB11D5D968C91928DD3
:1059E0009F5F9F73928F90E008958FEF9FEF0895D0
:1059F00088E69EE2892B49F084E399E1892B29F01E
:105A00000E94682E81110C9434190895FC01848D34
:105A1000DF01A80FB11DA35ABF4F2C91848D90E0D8
:105A200001968F739927848FA689B7892C93A089B3
:105A3000B1898C9180648C93938D848D981306C06A
:105A40000288F389E02D80818F7D80830895CF9334
:105A5000DF93EC01888D8823C9F0EA89FB89808176
:105A600085FD05C0A889B9898C9186FD0FC00FB648
:105A700007FCF5CF808185FFF2CFA889B9898C9189
:105A800085FFEDCFCE010E94062DE7CFDF91CF91AC
:105A90000895CF92DF92FF920F931F93CF93DF93DE
:105AA0001F92CDB7DEB76C0181E0D60158968C937A
:105AB00058975B969C915B975C968C915C9798133A
:105AC00007C05096ED91FC915197808185FD2EC0C5
:105AD000F601038D10E00F5F1F4F0F731127F02E9B
